{
  "transactions": [
    {
      "hash": "0xc565310bf02559ed7fbb4684bf82414d283ef00328e2c49797c2f4ccf9263f97",
      "transactionType": "CALL",
      "contractName": null,
      "contractAddress": "0xd2f0c63bc07349221c7ced44008787b54d2bd587",
      "function": "mint(uint256)",
      "arguments": [
        "1"
      ],
      "transaction": {
        "from": "0xa94d468af30923169e8a146472c03f223dbeb8b0",
        "to": "0xd2f0c63bc07349221c7ced44008787b54d2bd587",
        "gas": "0x27e39",
        "value": "0xf8b0a10e470000",
        "input": "0xa0712d680000000000000000000000000000000000000000000000000000000000000001",
        "nonce": "0xa",
        "chainId": "0x61"
      },
      "additionalContracts": [],
      "isFixedGasLimit": false
    }
  ],
  "receipts": [
    {
      "status": "0x1",
      "cumulativeGasUsed": "0x47cbf2",
      "logs": [
        {
          "address": "0xd2f0c63bc07349221c7ced44008787b54d2bd587",
          "topics": [
            "0x9428dcbe773ffde983d366e27dc72d5f9be6e309154036dd48f60fbc0784be68",
            "0x0000000000000000000000000000000000000000000000000000000000000033"
          ],
          "data": "0x",
          "blockHash": "0x068aa8f9aff83fea6e0ca815efdd1583eed1b728816ea81a39c5d638dad59336",
          "blockNumber": "0x267fc1f",
          "transactionHash": "0xc565310bf02559ed7fbb4684bf82414d283ef00328e2c49797c2f4ccf9263f97",
          "transactionIndex": "0x10",
          "logIndex": "0x5d",
          "removed": false
        },
        {
          "address": "0xd2f0c63bc07349221c7ced44008787b54d2bd587",
          "topics": [
            "0xddf252ad1be2c89b69c2b068fc378daa952ba7f163c4a11628f55a4df523b3ef",
            "0x0000000000000000000000000000000000000000000000000000000000000000",
            "0x000000000000000000000000a94d468af30923169e8a146472c03f223dbeb8b0",
            "0x0000000000000000000000000000000000000000000000000000000000000033"
          ],
          "data": "0x",
          "blockHash": "0x068aa8f9aff83fea6e0ca815efdd1583eed1b728816ea81a39c5d638dad59336",
          "blockNumber": "0x267fc1f",
          "transactionHash": "0xc565310bf02559ed7fbb4684bf82414d283ef00328e2c49797c2f4ccf9263f97",
          "transactionIndex": "0x10",
          "logIndex": "0x5e",
          "removed": false
        }
      ],
      "logsBloom": "0x00000000040000000000000000000000000000000000000000000000000000000000000000000000000000000000000000000000000000000001000000000000000000000000000000000008001000000008000000000000000000000000000000000000020000000000000000000800000000000000000000000010000000000000000040000000000000000000000000000000000000000000000000100000000001000000000000100080000000000000000000100000000000000000004000000002000000000000000000000000000000000000000000000000000020000000000000000000000000000000000000040000000000000000000000000000",
      "type": "0x0",
      "transactionHash": "0xc565310bf02559ed7fbb4684bf82414d283ef00328e2c49797c2f4ccf9263f97",
      "transactionIndex": "0x10",
      "blockHash": "0x068aa8f9aff83fea6e0ca815efdd1583eed1b728816ea81a39c5d638dad59336",
      "blockNumber": "0x267fc1f",
      "gasUsed": "0x1da0e",
      "effectiveGasPrice": "0x12a05f200",
      "from": "0xa94d468af30923169e8a146472c03f223dbeb8b0",
      "to": "0xd2f0c63bc07349221c7ced44008787b54d2bd587",
      "contractAddress": null
    }
  ],
  "libraries": [],
  "pending": [],
  "returns": {},
  "timestamp": 1715825057,
  "chain": 97,
  "commit": "108e206"
}