{
  "transactions": [
    {
      "hash": "0xa75b47cce6d2e3a177972cc7ea67ac14238f0b4f0d86651049899dd3214c5f97",
      "transactionType": "CALL",
      "contractName": null,
      "contractAddress": "0xd2f0c63bc07349221c7ced44008787b54d2bd587",
      "function": "mint(uint256)",
      "arguments": [
        "1"
      ],
      "transaction": {
        "from": "0xa94d468af30923169e8a146472c03f223dbeb8b0",
        "to": "0xd2f0c63bc07349221c7ced44008787b54d2bd587",
        "gas": "0x27e39",
        "value": "0x9fdf42f6e48000",
        "input": "0xa0712d680000000000000000000000000000000000000000000000000000000000000001",
        "nonce": "0x7",
        "chainId": "0x61"
      },
      "additionalContracts": [],
      "isFixedGasLimit": false
    }
  ],
  "receipts": [
    {
      "status": "0x1",
      "cumulativeGasUsed": "0x3737ea",
      "logs": [
        {
          "address": "0xd2f0c63bc07349221c7ced44008787b54d2bd587",
          "topics": [
            "0x9428dcbe773ffde983d366e27dc72d5f9be6e309154036dd48f60fbc0784be68",
            "0x0000000000000000000000000000000000000000000000000000000000000002"
          ],
          "data": "0x",
          "blockHash": "0xd608221079c47e6bef4684bcd7e772d33725c2a4ae817676d29db0037d09daa9",
          "blockNumber": "0x267fbc3",
          "transactionHash": "0xa75b47cce6d2e3a177972cc7ea67ac14238f0b4f0d86651049899dd3214c5f97",
          "transactionIndex": "0xe",
          "logIndex": "0x3b",
          "removed": false
        },
        {
          "address": "0xd2f0c63bc07349221c7ced44008787b54d2bd587",
          "topics": [
            "0xddf252ad1be2c89b69c2b068fc378daa952ba7f163c4a11628f55a4df523b3ef",
            "0x0000000000000000000000000000000000000000000000000000000000000000",
            "0x000000000000000000000000a94d468af30923169e8a146472c03f223dbeb8b0",
            "0x0000000000000000000000000000000000000000000000000000000000000002"
          ],
          "data": "0x",
          "blockHash": "0xd608221079c47e6bef4684bcd7e772d33725c2a4ae817676d29db0037d09daa9",
          "blockNumber": "0x267fbc3",
          "transactionHash": "0xa75b47cce6d2e3a177972cc7ea67ac14238f0b4f0d86651049899dd3214c5f97",
          "transactionIndex": "0xe",
          "logIndex": "0x3c",
          "removed": false
        }
      ],
      "logsBloom": "0x04000000040000000000000000000000000000000000000000000000000000000000000000000000000000000000000000000000000000000001000000000000000000000000000000000008001000000008000000000000000000000000000000000000020000000000000000000800000000000000000000000010000000000000000000000000000000000000000000000000000000000000000000100000000000000000000000100100000000000000000000100000000000000000004000000002000000000000000000000000000000000000000000000000000020000000000000000000000000000000000000040000008000000000000000000000",
      "type": "0x0",
      "transactionHash": "0xa75b47cce6d2e3a177972cc7ea67ac14238f0b4f0d86651049899dd3214c5f97",
      "transactionIndex": "0xe",
      "blockHash": "0xd608221079c47e6bef4684bcd7e772d33725c2a4ae817676d29db0037d09daa9",
      "blockNumber": "0x267fbc3",
      "gasUsed": "0x1da0e",
      "effectiveGasPrice": "0x12a05f200",
      "from": "0xa94d468af30923169e8a146472c03f223dbeb8b0",
      "to": "0xd2f0c63bc07349221c7ced44008787b54d2bd587",
      "contractAddress": null
    }
  ],
  "libraries": [],
  "pending": [],
  "returns": {},
  "timestamp": 1715824782,
  "chain": 97,
  "commit": "108e206"
}