{
  "transactions": [
    {
      "hash": "0x8347e1fbb91c4e843f58a08171f7e2c7a667d5d52d5a578421890b83cfc37721",
      "transactionType": "CALL",
      "contractName": null,
      "contractAddress": "0xd2f0c63bc07349221c7ced44008787b54d2bd587",
      "function": "mint(uint256)",
      "arguments": [
        "1"
      ],
      "transaction": {
        "from": "0xa94d468af30923169e8a146472c03f223dbeb8b0",
        "to": "0xd2f0c63bc07349221c7ced44008787b54d2bd587",
        "gas": "0x2da7b",
        "value": "0x9fdf42f6e48000",
        "input": "0xa0712d680000000000000000000000000000000000000000000000000000000000000001",
        "nonce": "0x6",
        "chainId": "0x61"
      },
      "additionalContracts": [],
      "isFixedGasLimit": false
    }
  ],
  "receipts": [
    {
      "status": "0x1",
      "cumulativeGasUsed": "0x31199f",
      "logs": [
        {
          "address": "0xd2f0c63bc07349221c7ced44008787b54d2bd587",
          "topics": [
            "0x9428dcbe773ffde983d366e27dc72d5f9be6e309154036dd48f60fbc0784be68",
            "0x0000000000000000000000000000000000000000000000000000000000000001"
          ],
          "data": "0x",
          "blockHash": "0x932981096b315d7cbf5fdcfe6329058b5d21b6d874e1fb47ca853b7f47ef5bf1",
          "blockNumber": "0x267fb91",
          "transactionHash": "0x8347e1fbb91c4e843f58a08171f7e2c7a667d5d52d5a578421890b83cfc37721",
          "transactionIndex": "0x10",
          "logIndex": "0x3f",
          "removed": false
        },
        {
          "address": "0xd2f0c63bc07349221c7ced44008787b54d2bd587",
          "topics": [
            "0xddf252ad1be2c89b69c2b068fc378daa952ba7f163c4a11628f55a4df523b3ef",
            "0x0000000000000000000000000000000000000000000000000000000000000000",
            "0x000000000000000000000000a94d468af30923169e8a146472c03f223dbeb8b0",
            "0x0000000000000000000000000000000000000000000000000000000000000001"
          ],
          "data": "0x",
          "blockHash": "0x932981096b315d7cbf5fdcfe6329058b5d21b6d874e1fb47ca853b7f47ef5bf1",
          "blockNumber": "0x267fb91",
          "transactionHash": "0x8347e1fbb91c4e843f58a08171f7e2c7a667d5d52d5a578421890b83cfc37721",
          "transactionIndex": "0x10",
          "logIndex": "0x40",
          "removed": false
        }
      ],
      "logsBloom": "0x00000000040000000000000000000000000000000000000000000000000000000000000000000000000000000000000000000000000000000001000000040000000000000000000000000008001000000008000000040000000000000000000000000000020000000000000000000800000000000000000000000010000000000000000000000000000000000000000000000000000000000000000000100000000000000000000000100000000000000000000000100000000000000000004000000002000000000000000000000000000000000000000000000000000060000000000000000000000000000000000000040000000000000000000000000000",
      "type": "0x0",
      "transactionHash": "0x8347e1fbb91c4e843f58a08171f7e2c7a667d5d52d5a578421890b83cfc37721",
      "transactionIndex": "0x10",
      "blockHash": "0x932981096b315d7cbf5fdcfe6329058b5d21b6d874e1fb47ca853b7f47ef5bf1",
      "blockNumber": "0x267fb91",
      "gasUsed": "0x25e98",
      "effectiveGasPrice": "0x12a05f200",
      "from": "0xa94d468af30923169e8a146472c03f223dbeb8b0",
      "to": "0xd2f0c63bc07349221c7ced44008787b54d2bd587",
      "contractAddress": null
    }
  ],
  "libraries": [],
  "pending": [],
  "returns": {},
  "timestamp": 1715824631,
  "chain": 97,
  "commit": "108e206"
}