{
  "transactions": [
    {
      "hash": "0x872400b42a500f960070a1e9177179e6bc45e8d09528fbf5b558d2ae3301f40c",
      "transactionType": "CALL",
      "contractName": null,
      "contractAddress": "0x658b06eb7f072548e6ebb231e60991b54063d2e5",
      "function": "mint(uint256)",
      "arguments": [
        "1"
      ],
      "transaction": {
        "from": "0xa94d468af30923169e8a146472c03f223dbeb8b0",
        "to": "0x658b06eb7f072548e6ebb231e60991b54063d2e5",
        "gas": "0x3bedf",
        "value": "0x9fdf42f6e48000",
        "input": "0xa0712d680000000000000000000000000000000000000000000000000000000000000001",
        "nonce": "0x17",
        "chainId": "0x61"
      },
      "additionalContracts": [],
      "isFixedGasLimit": false
    }
  ],
  "receipts": [
    {
      "status": "0x1",
      "cumulativeGasUsed": "0x4c929a",
      "logs": [
        {
          "address": "0x658b06eb7f072548e6ebb231e60991b54063d2e5",
          "topics": [
            "0x9428dcbe773ffde983d366e27dc72d5f9be6e309154036dd48f60fbc0784be68",
            "0x0000000000000000000000000000000000000000000000000000000000000001"
          ],
          "data": "0x",
          "blockHash": "0xf0b621f2aa25e810bb2bccf68ff843bcd51a09557b2b8f699192a07eef302995",
          "blockNumber": "0x268042b",
          "transactionHash": "0x872400b42a500f960070a1e9177179e6bc45e8d09528fbf5b558d2ae3301f40c",
          "transactionIndex": "0x11",
          "logIndex": "0x3c",
          "removed": false
        },
        {
          "address": "0x658b06eb7f072548e6ebb231e60991b54063d2e5",
          "topics": [
            "0xddf252ad1be2c89b69c2b068fc378daa952ba7f163c4a11628f55a4df523b3ef",
            "0x0000000000000000000000000000000000000000000000000000000000000000",
            "0x000000000000000000000000a94d468af30923169e8a146472c03f223dbeb8b0",
            "0x0000000000000000000000000000000000000000000000000000000000000001"
          ],
          "data": "0x",
          "blockHash": "0xf0b621f2aa25e810bb2bccf68ff843bcd51a09557b2b8f699192a07eef302995",
          "blockNumber": "0x268042b",
          "transactionHash": "0x872400b42a500f960070a1e9177179e6bc45e8d09528fbf5b558d2ae3301f40c",
          "transactionIndex": "0x11",
          "logIndex": "0x3d",
          "removed": false
        }
      ],
      "logsBloom": "0x00000000040000000000000000000000000000000000000000000000000000000000000000000000000000000000000000000000000000000001000000040000000000000000000000000008001000000000000000040000000000000000000000000000020100000000000000000800000000000000000000000410000000000000000000000000000000000000000000000000000000000000000000100000000000000000000000000000000000000000000000100000000000000000004000000002000000000000000000000000000000000000000000000000000060000000000000000100000000000000000000000000000000000000000000000000",
      "type": "0x0",
      "transactionHash": "0x872400b42a500f960070a1e9177179e6bc45e8d09528fbf5b558d2ae3301f40c",
      "transactionIndex": "0x11",
      "blockHash": "0xf0b621f2aa25e810bb2bccf68ff843bcd51a09557b2b8f699192a07eef302995",
      "blockNumber": "0x268042b",
      "gasUsed": "0x2b635",
      "effectiveGasPrice": "0x12a05f200",
      "from": "0xa94d468af30923169e8a146472c03f223dbeb8b0",
      "to": "0x658b06eb7f072548e6ebb231e60991b54063d2e5",
      "contractAddress": null
    }
  ],
  "libraries": [],
  "pending": [],
  "returns": {},
  "timestamp": 1715831236,
  "chain": 97,
  "commit": "108e206"
}