{
  "transactions": [
    {
      "hash": "0x2553f6ced93bc5c9221aa4a0844743805ba05f4c7479f3666eabaf36bc347eef",
      "transactionType": "CALL",
      "contractName": "NFTContract",
      "contractAddress": "0xe80bce560b0365a8286d53fdd68af207ee71a7d3",
      "function": "mint(uint256)",
      "arguments": [
        "1"
      ],
      "transaction": {
        "from": "0xa94d468af30923169e8a146472c03f223dbeb8b0",
        "to": "0xe80bce560b0365a8286d53fdd68af207ee71a7d3",
        "gas": "0x27e39",
        "value": "0x9fdf42f6e48000",
        "input": "0xa0712d680000000000000000000000000000000000000000000000000000000000000001",
        "nonce": "0x3",
        "chainId": "0x61"
      },
      "additionalContracts": [],
      "isFixedGasLimit": false
    }
  ],
  "receipts": [
    {
      "status": "0x1",
      "cumulativeGasUsed": "0x13fbf4",
      "logs": [
        {
          "address": "0xe80bce560b0365a8286d53fdd68af207ee71a7d3",
          "topics": [
            "0x9428dcbe773ffde983d366e27dc72d5f9be6e309154036dd48f60fbc0784be68",
            "0x0000000000000000000000000000000000000000000000000000000000000002"
          ],
          "data": "0x",
          "blockHash": "0x1388322a56125215d29219f3157e1a62ff09c1148760b096a16620b243fcd2e0",
          "blockNumber": "0x267faaa",
          "transactionHash": "0x2553f6ced93bc5c9221aa4a0844743805ba05f4c7479f3666eabaf36bc347eef",
          "transactionIndex": "0x8",
          "logIndex": "0x10",
          "removed": false
        },
        {
          "address": "0xe80bce560b0365a8286d53fdd68af207ee71a7d3",
          "topics": [
            "0xddf252ad1be2c89b69c2b068fc378daa952ba7f163c4a11628f55a4df523b3ef",
            "0x0000000000000000000000000000000000000000000000000000000000000000",
            "0x000000000000000000000000a94d468af30923169e8a146472c03f223dbeb8b0",
            "0x0000000000000000000000000000000000000000000000000000000000000002"
          ],
          "data": "0x",
          "blockHash": "0x1388322a56125215d29219f3157e1a62ff09c1148760b096a16620b243fcd2e0",
          "blockNumber": "0x267faaa",
          "transactionHash": "0x2553f6ced93bc5c9221aa4a0844743805ba05f4c7479f3666eabaf36bc347eef",
          "transactionIndex": "0x8",
          "logIndex": "0x11",
          "removed": false
        }
      ],
      "logsBloom": "0x04000000040000000000000000000000000000000000000000000008000000000000000000000000000000000000000000000000000000000001000000000000000000000000000000000008001000000000000000000000000000000000000000000000020000000000000000000800000000000000000000000010000000000000000000000000000000000000000000000000000000000000000000100000000000000000000000000110000000000000000000100000000000000000004000000002000000000000000000000000000000000000000000000000000020000000000000400000000000000000000000000000008000000000000000000000",
      "type": "0x0",
      "transactionHash": "0x2553f6ced93bc5c9221aa4a0844743805ba05f4c7479f3666eabaf36bc347eef",
      "transactionIndex": "0x8",
      "blockHash": "0x1388322a56125215d29219f3157e1a62ff09c1148760b096a16620b243fcd2e0",
      "blockNumber": "0x267faaa",
      "gasUsed": "0x1da0e",
      "effectiveGasPrice": "0x12a05f200",
      "from": "0xa94d468af30923169e8a146472c03f223dbeb8b0",
      "to": "0xe80bce560b0365a8286d53fdd68af207ee71a7d3",
      "contractAddress": null
    }
  ],
  "libraries": [],
  "pending": [],
  "returns": {},
  "timestamp": 1715823938,
  "chain": 97,
  "commit": "108e206"
}