{
  "transactions": [
    {
      "hash": "0xd836623cb1e2c1ed2f356e51e6ddcb7b9e6afe2ae40b345148dfd8fc8b02acd3",
      "transactionType": "CALL",
      "contractName": "NFTContract",
      "contractAddress": "0xe80bce560b0365a8286d53fdd68af207ee71a7d3",
      "function": "mint(uint256)",
      "arguments": [
        "1"
      ],
      "transaction": {
        "from": "0xa94d468af30923169e8a146472c03f223dbeb8b0",
        "to": "0xe80bce560b0365a8286d53fdd68af207ee71a7d3",
        "gas": "0x2da7b",
        "value": "0x9fdf42f6e48000",
        "input": "0xa0712d680000000000000000000000000000000000000000000000000000000000000001",
        "nonce": "0x2",
        "chainId": "0x61"
      },
      "additionalContracts": [],
      "isFixedGasLimit": false
    }
  ],
  "receipts": [
    {
      "status": "0x1",
      "cumulativeGasUsed": "0x3195eb",
      "logs": [
        {
          "address": "0xe80bce560b0365a8286d53fdd68af207ee71a7d3",
          "topics": [
            "0x9428dcbe773ffde983d366e27dc72d5f9be6e309154036dd48f60fbc0784be68",
            "0x0000000000000000000000000000000000000000000000000000000000000001"
          ],
          "data": "0x",
          "blockHash": "0x2ca3f7ce3ff98c0b040052fdc609a47f44a0ecd42bc66d7c74489dcbb26744f6",
          "blockNumber": "0x267fa6d",
          "transactionHash": "0xd836623cb1e2c1ed2f356e51e6ddcb7b9e6afe2ae40b345148dfd8fc8b02acd3",
          "transactionIndex": "0xd",
          "logIndex": "0x3e",
          "removed": false
        },
        {
          "address": "0xe80bce560b0365a8286d53fdd68af207ee71a7d3",
          "topics": [
            "0xddf252ad1be2c89b69c2b068fc378daa952ba7f163c4a11628f55a4df523b3ef",
            "0x0000000000000000000000000000000000000000000000000000000000000000",
            "0x000000000000000000000000a94d468af30923169e8a146472c03f223dbeb8b0",
            "0x0000000000000000000000000000000000000000000000000000000000000001"
          ],
          "data": "0x",
          "blockHash": "0x2ca3f7ce3ff98c0b040052fdc609a47f44a0ecd42bc66d7c74489dcbb26744f6",
          "blockNumber": "0x267fa6d",
          "transactionHash": "0xd836623cb1e2c1ed2f356e51e6ddcb7b9e6afe2ae40b345148dfd8fc8b02acd3",
          "transactionIndex": "0xd",
          "logIndex": "0x3f",
          "removed": false
        }
      ],
      "logsBloom": "0x00000000040000000000000000000000000000000000000000000008000000000000000000000000000000000000000000000000000000000001000000040000000000000000000000000008001000000000000000040000000000000000000000000000020000000000000000000800000000000000000000000010000000000000000000000000000000000000000000000000000000000000000000100000000000000000000000000010000000000000000000100000000000000000004000000002000000000000000000000000000000000000000000000000000060000000000000400000000000000000000000000000000000000000000000000000",
      "type": "0x0",
      "transactionHash": "0xd836623cb1e2c1ed2f356e51e6ddcb7b9e6afe2ae40b345148dfd8fc8b02acd3",
      "transactionIndex": "0xd",
      "blockHash": "0x2ca3f7ce3ff98c0b040052fdc609a47f44a0ecd42bc66d7c74489dcbb26744f6",
      "blockNumber": "0x267fa6d",
      "gasUsed": "0x25e98",
      "effectiveGasPrice": "0x12a05f200",
      "from": "0xa94d468af30923169e8a146472c03f223dbeb8b0",
      "to": "0xe80bce560b0365a8286d53fdd68af207ee71a7d3",
      "contractAddress": null
    }
  ],
  "libraries": [],
  "pending": [],
  "returns": {},
  "timestamp": 1715823755,
  "chain": 97,
  "commit": "108e206"
}